:020000040800F2
:1000000000500020691400086514000863140008FB
:100010006314000863140008631400080000000063
:10002000000000000000000000000000651400084F
:100030006514000800000000651400087105000840
:1000400063140008631400086314000863140008B4
:1000500063140008631400086314000863140008A4
:100060006314000863140008631400086314000894
:100070006314000863140008631400086314000884
:10008000631400086314000863140008DD06000808
:10009000DD060008631400086314000863140008F8
:1000A0006314000863140008631400086314000854
:1000B0004505000863140008631400086314000871
:1000C0006314000863140008631400086314000834
:1000D0006314000863140008631400086314000824
:1000E0006314000863140008DD06000863140008A8
:1000F0006314000863140008631400086314000804
:1001000063140008631400086314000863140008F3
:1001100063140008631400086314000863140008E3
:1001200063140008631400086314000863140008D3
:1001300063140008631400086314000863140008C3
:1001400063140008631400086314000863140008B3
:1001500008B5042001F0D8F9044801F0CDF901F008
:10016000DFF9BDE8084001F0E3B900BF3F19010025
:1001700008B54FF4607000F0F5FB4FF4007000F02C
:10018000FFFB00214FF0804000F062FC01214FF0A6
:10019000804000F05DFC02214FF0804000F058FCF0
:1001A00003214FF0804000F053FC00214FF08040CD
:1001B00000F025FC02214FF0804000F020FC0421DB
:1001C0004FF0804000F01BFC06214FF0804000F013
:1001D00016FC4FF0804000F0FCFB4FF0804000F038
:1001E000FDFB4FF6FF714FF0804000F006FC072149
:1001F0004FF0804000F04FFC154B164A1B684FF043
:100200008040D15C00F02CFC00214FF0804000F0D9
:1002100039FC114B114A1B684FF08040D15C00F053
:1002200028FC70214FF0804000F03DFC4FF08040F2
:1002300000F0D9FB1C2001F083F94FF0804000F062
:10024000D7FBBDE8084002214FF0804000F0B4BB6E
:10025000C40A00200C910008D80A00204C91000824
:1002600008B502224FF480730648032100F03CFADF
:10027000054B1A68054B53F82200BDE8084000F012
:1002800091BB00BF00080140D40A00202C91000857
:100290000FB473B506AB53F8042B4FF480710C48C0
:1002A000019301F0BDFC00240546094EAC4204DB7D
:1002B00002B0BDE8704004B07047291B402906EB2E
:1002C0000400C8BF402100F0EDF90444A4B2EDE7FA
:1002D000C40900200148FFF7DBBF00BF908F000872
:1002E00008B500F0E9F9502822D8452804D80A2892
:1002F00058D00D2856D008BD46380A28FBD801A38F
:1003000053F820F065030008F702000859030008BD
:10031000F7020008F7020008F7020008F7020008D9
:10032000F7020008F70200083B03000885030008F5
:100330006638C3B20A2BE0D9DDE71D4B1A680132DB
:10034000032A88BF00221A601A681A4B53F8220049
:10035000BDE8084000F026BB174A137883F001037C
:100360001370C8E7154B4FF080401A6801320F2A0E
:1003700088BF00221A601B68114AD15CBDE80840A2
:1003800000F06EBB0F4B4FF080401A680132032A19
:1003900088BF00221A601B680B4AD15CBDE8084088
:1003A00000F067BB0121BDE80840084800F07AB9B9
:1003B000D40A00202C910008D00A0020C40A002092
:1003C0000C910008D80A00204C910008B68F000854
:1003D0002DE9F74F00F080FA40F2023000F0C2FA47
:1003E00040F2033000F0BEFA4FF4407000F0BAFA69
:1003F0004FF4805300220221404800F075F94FF479
:1004000080513E4800F09FF90223002219463C48E3
:1004100000F06AF902213A4800F097F94FF40073AE
:1004200001220221354800F05FF94FF40071334892
:1004300000F08BF900F00CF94FF480512F4800F0D8
:1004400084F9FFF795FEFFF783FEFFF709FF2D4BB9
:100450001F461A68B2F5FA7FFBD32B4B98461A68F1
:10046000002AFCD00025294EDFF890A0DFF8D090BC
:10047000FFF736FFFFF72EFFD8F80040D8F800202E
:100480000221A2F58032B2FBF6FB504606FB1B2B85
:1004900000F05EF91E4900281E4A99F80000A4F5F4
:1004A000803414BF2E232023B4FBF6F4002808BFA9
:1004B0000A462146184800925A46FFF7E9FE174BB4
:1004C00017481A68174B643553F82210FFF7E0FEFF
:1004D000154B16481A68164B53F82210FFF7D8FE32
:1004E000144B15481A68154B53F82210FFF7D0FE2D
:1004F0003B689D42FCD83D68BAE700BF000C014054
:1005000000080140DC0A0020C80A002040420F0019
:1005100005900008948F0008988F0008D40A0020E6
:10052000B98F00081C910008C40A0020CC8F000875
:10053000CC900008D80A0020E18F00083C91000808
:10054000D00A002008B502214FF0804000F038FAB0
:1005500058B1064A022113684FF0804003F58033FA
:100560001360BDE8084000F031BA08BDCC0A002095
:10057000194B10B51A6801321A604FF47A72196873
:10058000B1FBF2F302FB131323BB144B144C1B7887
:100590006BB94FF0804000F057FA2368114A1844B5
:1005A0001168114B186011B11A688A401A60012154
:1005B0004FF0804000F04AFA00214FF0804000F0F8
:1005C00045FA00234FF4805123600848BDE81040ED
:1005D00000F0C1B810BD00BFDC0A0020D00A002026
:1005E000CC0A0020D80A0020C80A0020000C0140D4
:1005F0004878202804D0A0F122035842584170477F
:100600001888062894BF00200120704737B50025C0
:100610000446402302220121009500F07BFA204687
:10062000402302228221009500F074FA2046102314
:1006300003228321009500F06DFA7F2221212046BC
:10064000024B03B0BDE8304000F052BBF10500089A
:100650001FB5802302930C4B0C4A019303230C49D2
:1006600000930C480C4B00F027FA0C4B0C49186017
:1006700000F038FE142000F063FF2A2005B05DF87A
:1006800004EB00F05DBF00BFE00A0020AF9100085E
:10069000EF9100082492000800000020600B002069
:1006A0000D060008024603488BB20068822100F064
:1006B00051BA00BF600B0020012307B50648194658
:1006C00000680DF1070200F04CFA08B19DF8070030
:1006D00003B05DF804FB00BF600B0020014B1868FD
:1006E00000F014BA600B00202DE9F0414FF00F0C20
:1006F00000250768466843FA05F4E4071CD5072D72
:1007000094BFBE46B646ACB24FEA84048ABF203CD2
:10071000A4B2A4B20CFA04F82EEA080804F1020EFE
:1007200002FA0EFE01FA04F44EEA040444EA080454
:10073000072D94BF274626460135102DDBD10760D3
:100740004660BDE8F08101617047090401617047AE
:10075000806808407047C36801EA030221EA030188
:1007600041EA024101617047024A136843F0807315
:100770001360704700100240062822D8DFE800F01E
:1007800004090E13181D1F000F4B1868C0F34060BA
:1007900070470D4B1868C0F3C06070470A4B18686B
:1007A000C0F340707047084B1868C0F34040704772
:1007B000054B1868C0F340007047044BF9E7044B41
:1007C000F7E70020704700BF0010024020100240F1
:1007D00024100240024608B51046FFF7CDFF00285E
:1007E000FAD008BD06280CD8DFE800F004060C118A
:1007F000161B1D00FFF7B8BF0C4A136843F0806357
:1008000013607047094A136843F08053F8E7074ABA
:10081000136843F48033F3E7044A136843F0010399
:10082000EEE7034AF9E7034AF7E700BF001002408A
:100830002010024024100240034A136823F00303EF
:1008400003431360704700BF04100240034A13685B
:1008500023F4701343EA804313607047041002408E
:10086000034A136823F4803343EA0043136070475C
:1008700004100240034A136823F4003343EA404360
:100880001360704704100240034A136823F4404386
:1008900043EA80331360704704100240034A136830
:1008A00023F4605343EAC0231360704704100240EE
:1008B000034A136823F4E06343EA0023136070479C
:1008C00004100240034A136823F0F00343EA0013C4
:1008D000136070470410024008B50420FFF782FF40
:1008E0000420FFF777FF0020FFF7A6FF0320FFF7A4
:1008F00079FF0320FFF76EFF0120FFF79DFF002027
:10090000FFF7E0FF0320FFF7BFFF0420FFF7D0FF52
:100910000020FFF7C3FF022000F020FE0720FFF7B2
:1009200095FF0120FFF79CFF0020FFF7A3FFFFF7D3
:100930001BFF0020FFF74EFF0220FFF77DFF044B57
:10094000044A05491360054A1160054A136008BD51
:1009500000A24A040C0000200051250210000020D3
:10096000140000200122430903F1804303F50433FE
:10097000196800F01F0002FA00F008431860704781
:100980000122430903F1804303F50433196800F0A1
:100990001F0002FA00F0014319601A6822EA000001
:1009A00018607047034A136823F0706343EA0063DA
:1009B0001360704704100240C3680B43C360704764
:1009C00003690B4214BF012000207047C943016135
:1009D0007047036823F0800303607047036823F0C7
:1009E000080303607047036843F004030360704723
:1009F000036843F0010303607047C1627047062932
:100A000009D8DFE801F0041509190D1D1100036A6A
:100A100023F0010303627047036A23F01003F9E730
:100A2000036A23F48073F5E7036A23F48053F1E744
:100A3000036A23F00403EDE7036A23F04003E9E7C8
:100A4000036A23F48063E5E7406A704741627047B8
:100A50008A000121036A914023EA0103036270477F
:100A6000826822F470628260836843EA01238360B3
:100A70007047826822F440528260836843EA0133FF
:100A800083607047836819B143F400438360704703
:100A900023F40043FAE7836823F007038360836845
:100AA000194381607047836823F070038360836813
:100AB00019438160704700002DE9F0411E4603682C
:100AC0001746054688469847069B079AC360002349
:100AD0000261BDF82020C0E900878282084AC0E98F
:100AE00038330267074AC0E93233C266064AC0E9B2
:100AF0003433C0F8DC5086608266BDE8F08100BF08
:100B00001D0D00087D0D0008FF0D0008D0F8DC3039
:100B10005B6A184710B4D0F8DC40A468A44610BC47
:100B2000604737B5002504460368C582DB792A464D
:100B300029460095FFF7EEFFD4F8DC3029465B68C4
:100B400020469847E3691BB103B0BDE83040184721
:100B500003B030BD10B4D0F8DC40E469A44610BC4A
:100B6000604710B4D0F8DC40246AA44610BC60474B
:100B7000D0F8DC301B691847D0F8DC309B69184787
:100B8000D0F8DC305B69184710B503680446D979A2
:100B9000838F826B99420FD20B460021FFF7DAFF59
:100BA000022384F82C302368A26BD979A38F0A44DE
:100BB0005B1AA263A38710BD0021FFF7CBFF94F857
:100BC0004430002B14BF0223032384F82C3000236D
:100BD00084F84430A387A363EDE72DE9F74F04467B
:100BE0000E46054600F1200A00F1380800F13C0BE2
:100BF00000F14009AF6C47B95B464246314620469A
:100C000003B0BDE8F04F00F0DDBB317895F84D2022
:100C100095F84C3011408B4203D008355545E9D149
:100C2000EAE75B46424631462046CDF80090B84799
:100C30000128F2D803B0BDE8F08F10B501220021E1
:100C40000446FFF795FF002384F82C3010BD70B5E3
:100C50000368828FC48EDB79A41A9C42A8BF1C460D
:100C6000816BA6B20A44334600210546FFF779FF9F
:100C7000864205D02846FFF7E0FF4FF0FF3070BDF9
:100C8000AB8FA0B21E44AE87F9E738B503690446BE
:100C900083638B79CA790D4643EA02238387FFF782
:100CA0009CFF00B3EB88ABB1A28F21689342C97956
:100CB0000ED932B1B2FBF1F301FB1322B2FA82F288
:100CC0005209204684F84420BDE83840FFF75CBF55
:100CD0000022F6E71A4619462046FFF73BFF042399
:100CE00084F82C3038BD2046BDE83840FFF7A5BF5A
:100CF00070B5002400F1480656F834502DB1013487
:100D0000042CF9D14FF0FF3070BD00EBC40484F81F
:100D10004C10284684F84D20A364F5E770B50025F3
:100D2000044601222946056400F13006FFF728FF3A
:100D3000E28E2AB931462046BDE87040FFF7A5BFD4
:100D400094F93030002BF5DBA38A934204D220467D
:100D5000BDE87040FFF771BF2369A587A3632368CF
:100D60002946DB792046934234BF052306232A46D1
:100D700084F82C30BDE87040FFF702BF10B590F842
:100D80002C300446062B12D0072B27D0052B21D15F
:100D9000FFF75DFF002809DBA28FE38E9B1A226814
:100DA000D279934202DC062384F82C3010BDFFF781
:100DB0004EFF0028FADB204604F13001FFF70DFF5B
:100DC00038B1002320461A461946FFF7C3FE042314
:100DD000EAE72046BDE81040FFF72FBF00231A4680
:100DE0001946FFF7BEFE002384F82C30236C1BB19C
:100DF000204604F13001984700232364D6E710B55C
:100E000090F82C300446032B07D0042B0ED0022B75
:100E100023D1BDE81040FFF7B7BE0723002280F8BA
:100E20002C301146BDE81040FFF7AABE036C13B189
:100E300000F13001984794F8303053B994F83130CC
:100E4000052B06D1618ED4F8DC3020465B68C9B230
:100E50009847002384F82C3010BDBDE81040FFF700
:100E6000ECBE10B50B7873B94C887F2C0CD8D0F839
:100E7000DC30847593F830201AB149885B68C9B2B8
:100E80009847012300E00023184610BDF8B50D4631
:100E90004988044679B103680D26587C002398429E
:100EA00001D80020F8BD626806FB032252798A420D
:100EB00003D00133F3E74FF0FF330133DBB2E375C7
:100EC0004BB9D4F8DC302046DB689847D4F8C830FA
:100ED0009BB90120E6E70D22534362680D3B1344A2
:100EE0000022104619799142EBD9D3F80910160166
:100EF000715801B108700132F4E7002304F1C8060B
:100F0000A3642365A365236604F1D80756F8043B60
:100F100013B1204669889847B742F7D1D9E71988B5
:100F20001268012984BF01211980C37D2BB141685A
:100F30000D2000FB031313F8083C012013707047C9
:100F400030B50D24C57D40686C430D3C04448D884C
:100F5000207985420CD2012018808B88D4F80900B2
:100F60001B011B5803B11B7801201268137030BDA0
:100F70000020FCE719880120022984BF0221198082
:100F8000002311680B7012685370704710B5144637
:100F90001A88022A84BF02221A808988C9B2FFF700
:100FA000EBFD003818BF0120002223681870236869
:100FB00001205A7010BD08B589880122C9B2FFF717
:100FC000D7FD012008BD08B589880022C9B2FFF706
:100FD000CFFD012008BD0D2270B51C46C37D5A43CC
:100FE00043680D3A13441D798A88954219D9D3F87C
:100FF0000950160105EB02124B8812799A4210D95A
:10100000AA5952B11370D0F8D83013B14A888988E0
:10101000984700230120238070BD002BF3D0104699
:10102000FAE70020F8E72DE9F04F1F464B88054608
:10103000180A0228164689B010D0032800F0ED8067
:10104000012840F041812B6813601B783A88934255
:1010500028BF13463B8009B0BDE8F08F4FF00D0864
:10106000DBB208FB03F82A69D5F80490326019F85E
:1010700008503C8809EB0803A54228BF2546029288
:1010800019462A460298039300F0F2FC029B641B67
:101090005E19002319F80880A4B20193039B1A7902
:1010A000BDF804309A4205D8029BA3F802803D8027
:1010B0000120D0E7019B019A1B010593039BD3F804
:1010C000093003EB0213D3F808A0BAF1000F14D0D3
:1010D0009AF800903046A14528BFA14651464A469D
:1010E00000F0C6FC9AF80030A4EB09044D44984483
:1010F0004E44A4B2ADB21FFA88F800230493039BB8
:10110000059AD3F8093013441979BDF8102091429B
:1011100002D8019B0133C0E71521049AD3F80CA033
:1011200001FB02F91AF809B00AEB0903A34528BF2D
:10113000A346194630465A46009300F099FC1AF827
:101140000930A4EB0B049844009B5D44D3F80D10C8
:101150005E44A4B2ADB21FFA88F8B1B1D3F811A0C1
:101160003046A245A8BFA2461FFA8AF94A4600F0B7
:101170007FFC009BA4EB0904D3F811304D44984444
:101180004E44A4B2ADB21FFA88F84FF00009009B9C
:101190001A791FFA89F39A4202D8049B0133ADE70A
:1011A000009BC9EB091BD3F80930304613F80B201C
:1011B00003EB0B0AA24228BF224651460793069230
:1011C00000F056FC079B069A13F80B30DAF807106C
:1011D000A41A154498441644A4B2ADB21FFA88F874
:1011E000C1B1DAF80B203046A242A8BF22461FFA4E
:1011F00082FB5A46CDF818B000F03AFCDAF80B3012
:10120000069AA4EB0B045D4498441644A4B2ADB214
:101210001FFA88F809F10109B9E713F0FF032C69F7
:101220000DD10923A3700423E37023703B88042BA2
:1012300028BF04233B8003236370346038E7D5F86C
:10124000E0209A4219D1D5F8E450284600F086FCF7
:1012500001304000C0B220703B88984228BF184639
:10126000002338803A885208013A9A42E3DDE95C6B
:1012700004EB430251800133F4E7A868013B0028E6
:101280003FF4E9AEEA689A421EDD40F209428988DD
:10129000914219D150F82350284600F05FFC0130EC
:1012A0004000C0B220703B88984228BF18460023F7
:1012B00038803A885208013A9A42BCDDE95C04EB76
:1012C000430251800133F4E70020C4E6198801206D
:1012D000022984BF02211980002311680B70126853
:1012E000537070470246002310B500F1C80454F84B
:1012F000040B38B1884209D00133042BF7D14FF0E9
:10130000FF3010BD323342F82310FAE70020F8E72F
:1013100010B44C78092C12D8DFE804F00D1111112B
:10132000110F0B110905074CA44610BC6047064C71
:10133000FAE7064CF8E7064CF6E7064CF4E700201F
:1013400010BC70478D0E00081F0F00082710000802
:10135000750F0008630E000810B44C780A2C06D0F4
:101360000B2C06D03CB9054CA44610BC6047044C7D
:10137000FAE7044CF8E7002010BC7047CD120008D3
:10138000410F0008D70F000810B44C78012C04D08E
:10139000032C07D01CB9084C08E04C884CB1002045
:1013A00010BC70474C88002CF9D1044CA44610BCEA
:1013B0006047034CFAE700BF8D0F0008B70F000825
:1013C000C70F000810B40C7814F0600F0FD104F0B0
:1013D0001F04012C05D0022C06D044B910BCFFF725
:1013E00097BF10BCFFF7B8BF10BCFFF7CDBF002000
:1013F00010BC704708B540F29730FFF7B3FA0023EE
:10140000054A064913600B6041F80C3C4FF41C433D
:101410000348136008BD00BF405C0040505C0040C2
:10142000640B00200132521001EB4202914200D1C4
:10143000704731F8023B40F8043BF7E7034670B5CC
:1014400002F00104520801EB8205A94204D114B153
:101450000B7800F8123070BD31F8046B23F8026B82
:10146000F3E7FEE77047000038B5184A184B1949F2
:101470008B4217D30021184A934218D3174A184CAD
:101480001368184D43F400731360AC4212D3164C2A
:10149000164DAC4212D3FEF79BFF154C154DAC42D6
:1014A00010D338BD52F8040B43F8040BE0E743F8BF
:1014B000041BE1E754F8043B9847E6E754F8043B83
:1014C0009847E6E754F8043B9847E8E71096000889
:1014D00000000020C4090020AC0C002014ED00E046
:1014E0000896000808960008089600080896000864
:1014F0000896000808960008024B20F07F4018600C
:10150000704700BF14E000E0044A00F004001368D4
:1015100023F0040303431360704700BF10E000E0B2
:10152000024A136843F002031360704710E000E0C2
:10153000024A136843F001031360704710E000E0B3
:10154000012243099B0003F1604300F01F0003F5F3
:10155000614302FA00F0186070470000034A136804
:1015600023F0070303431360704700BF00200240CD
:10157000024B41F080011960704700BF4C5C004095
:101580003E2A13D9013AC2F3441302F4787202F1ED
:10159000200043F02003084A9B0212689BB292B2DB
:1015A00002EBC101054A490053507047013253080C
:1015B00022F0010290B2EEE7505C00400C60004067
:1015C0002DE9F34106464FF0C060434C01F07F0720
:1015D000CDE90040BC0004F1804404F5B844206823
:1015E00002AD20F4E04020F07F00384380B220605C
:1015F000206805EB420232F8082C20F4EC4020F081
:101600007000104349B280B200292060DDF82080CC
:1016100032484FEAC70C2ADB4FB30268318B92B2D3
:1016200094442F4A4FEA4C0C42F80C1030461A46AC
:101630003946FFF7A5FFB8F1000F46D1236823F420
:10164000415323F030031B041B0C2360236823F455
:10165000804323F070039BB283F4405343F4004370
:1016600043F080032360338B184430832AE00568FD
:10167000328BADB265446D0005F1804505F5C0457E
:101680002A60B8F1000F04D00C2505FB0765C5F8EA
:10169000688025681A4425F4E04525F030052D04BE
:1016A0002D0C25602568002925F4E04525F040052E
:1016B000ADB285F0200545F4004545F08005256074
:1016C0003283AADA02B0BDE8F0810C2101FB076782
:1016D000C7F86C80B2E700BF00020004505C004015
:1016E0000860004048F2800170B50B4A0B4E0C4D6B
:1016F0000C4C136833400B439BB2136013682B40B0
:101700000B439BB242F8043BA242F2D10368DB795F
:1017100020335B00038370BD045C0040BF8FFFFF7C
:101720008FBFFFFF205C004010B5002933D1002A95
:1017300014BF102420242B48036823F4E04323F033
:10174000400363401BB243F4004343F080039BB269
:101750000360890001F1804101F5B8413AB90B6895
:1017600023F4415323F030031B041B0C0B60002AAD
:1017700014BF4FF480524FF440520B6823F480435F
:1017800023F0700353401BB243F4004343F0800343
:101790009BB20B6024E00B06DBD5002A14BF10229D
:1017A000202201F07F034FEA830303F1804303F516
:1017B000B843196821F4E04121F0400182EA0102B6
:1017C00012B242F4004242F0800292B21A6007D193
:1017D0001A6822F4E04222F030021204120C1A605D
:1017E00010BD00BF005C00400B060ED501F07F016C
:1017F000890001F1804101F5B841086800F030002E
:10180000102814BF002001207047890001F1804199
:1018100001F5B841086800F44050B0F5805FF0E78A
:101820000B0612D40B4B0C485A54890001F180412D
:1018300001F5B8410B6803409BB23AB183F4005301
:1018400043F4004343F080030B60704783F440533C
:10185000F6E700BF680C00208FBFFFFF0846F8B511
:101860001D4600F07F039C0004F1804404F5B84459
:101870001146226802F03002302A28D0154F2A463D
:101880003868DE0080B200EBC300400000F1804009
:1018900000F5C0400088400000F1804000F5C040E5
:1018A000FFF7C0FD3B689BB21E440B4B76009D5179
:1018B000216821F4E04121F0400189B281F030013A
:1018C00041F4004141F0800121602846F8BD002527
:1018D000FBE700BF505C004004600040F8B58D009D
:1018E00005F1804505F5B8451C462B680E4603F406
:1018F0004053B3F5405F10463BD01F4F1F4A3B6833
:10190000C9009BB203EBC6035B00D358C3F30903C2
:10191000A34206DA3B689BB20B445B00D458C4F385
:1019200009043B6822469BB21944154B4900595A99
:10193000490001F1804101F5C041FFF77FFD2B68AF
:1019400023F0F0031B051B0D43F080032B600D4BB0
:101950009B5D63B9296821F4804121F0700189B24F
:1019600081F4405141F4004141F08001296020465A
:10197000F8BD0024FBE700BF505C00400C60004055
:1019800008600040680C0020374A2DE9F0411368D8
:10199000044613F4806F16469FB208D0BDE8F041AC
:1019A0004FF6FF33136040230383FFF7BAB81D04DB
:1019B0001FD503F00F084FEA880505F1804513F0A5
:1019C000100305F5B84536D02B6819053CD508231A
:1019D000414600F13002FFF781FF022308EB480285
:1019E00013441A3354F82330002B2FD0414620469D
:1019F00098473A0505D54FF2FF733360236A03B168
:101A00009847FB0405D54EF6FF733360636A03B154
:101A1000984717F4007F154D05D04FF6FF52A36A83
:101A20003260E3B19847A36ACBB12B6843F40073EB
:101A30002B60BDE8F0812A6822F0F0021205120D39
:101A400042F400422A60C9E70123C7E72B6823F06C
:101A5000F0031B051B0D43F080032B60C9E72B68C7
:101A600023F40073E4E700BF445C0040405C0040A6
:101A7000844641EA000313F0030349D1403A23D3DB
:101A80000B6803604B6843608B688360CB68C360FE
:101A90000B6903614B6943618B698361CB69C361E6
:101AA0000B6A03624B6A43628B6A8362CB6AC362CE
:101AB0000B6B03634B6B43638B6B8363CB6BC363B6
:101AC00040304031403ADBD230320BD30B680360F8
:101AD0004B6843608B688360CB68C3601030103103
:101AE000103AF3D20C3205D351F8043B40F8043BD2
:101AF000043AF9D2043208D0D2071CBF11F8013BD6
:101B000000F8013B01D30B8803806046704700BF9B
:101B1000082A13D38B07B1D010F00303AED0C3F162
:101B20000403D21ADB071CBF11F8013B00F8013B8C
:101B3000A4D331F8023B20F8023B9FE7043AD9D303
:101B4000013A11F8013B00F8013BF9D20B78037020
:101B50004B7843708B7883706046704720F00301A8
:101B600010F00300C0F1000051F8043B00F1040C38
:101B70004FEACC0C6FF000021CBF22FA0CF21343A8
:101B80004FF0010C4CEA0C2C4CEA0C4CA3EB0C0271
:101B900022EA030212EACC1204BF51F8043B0430DB
:101BA000F4D0C2F1000102EA0102B2FA82F2C2F1FB
:101BB0001F0200EBD200704770B5141E9AB00546A4
:101BC00029DB1A464FF4027300910491ADF80C30F2
:101BD0004FF6FF7611D0013C1E9B69460294059496
:101BE000ADF80E6000F02AF8421C01DA8B232B605E
:101BF0000022009B1A701AB070BD1E9B69460294A9
:101C00000594ADF80E6000F019F8431C01DA8B233F
:101C10002B601AB070BD8B234FF0FF302B60F8E7BC
:101C200010B5054C82B0009313460A460146206861
:101C3000FFF7C2FF02B010BD180000202DE9F04FE1
:101C4000BFB00C460B919246CDE90C0302F066FA48
:101C5000036818461593FFF781FFA38913901D06AB
:101C600003D52369002B00F05B87002300210022AD
:101C7000CDE92233CDE910120DF1B8091293149376
:101C800016930893CDF884909AF80030002B00F05A
:101C9000BF80252B00F09286554603E0252B00F0EF
:101CA000A98025466B786C1C002BF7D1B4EB0A0693
:101CB00000F0AE80DDE9223201333244072BC9E95E
:101CC00000A6CDE9223200F39A8009F10809089AAA
:101CD0006B7832440892002B00F09A8000234FF07A
:101CE000FF361A4619469B4667788DF86730099388
:101CF00004F1010A0AF1010AA7F12003582B00F2AE
:101D0000C582DFE813F0E200C302C302DD00C302B4
:101D1000C302C302C302C302C302D000CB00C3028A
:101D2000C600AD00C302A80099009900990099006F
:101D300099009900990099009900C302C302C30257
:101D4000C302C302C302C302C302C302C30294029A
:101D50005502C3025502C302C302C302C3024C02AE
:101D6000C302C3026800C302C302C302C302C302A8
:101D70005900C302C3023402C302C302C302C30236
:101D8000C302C302C302C302C302C302BB01910167
:101D90005502550255028C019101C302C3027F0115
:101DA000C30269016A003A013501C3020B01C30293
:101DB0005B00C302C302EA004BF0100B1BF0200FC4
:101DC00000F059820D9C073424F00703F3E8024524
:101DD0000D930123E1E04BF0100B1BF0200300F00A
:101DE00040820D9C073424F00703F3E802450D936D
:101DF0000023D2E0B4EB0A063FF470AF5AE721AA01
:101E0000DDE90B1003F050F948B90DF1B8095EE7B0
:101E1000239B23B10C9821AA0B9903F045F90B9B46
:101E20009B8913F0400F089B18BF4FF0FF330893B6
:101E300008983FB0BDE8F08F0020A7F130031AF8F2
:101E4000017B00EB800003EB4000A7F13003092B7E
:101E5000F5D9099050E74BF0800B9AF8007049E7EC
:101E6000504610F8017B2A2F01F03081A7F1300392
:101E7000092B82464FF000063FF63EAF1AF8017B71
:101E800006EB860603EB4606A7F13003092BF5D9CE
:101E900032E79AF800704BF0040B2BE79AF80070C9
:101EA00001222B2126E70D9B9AF8007053F8040BB2
:101EB000002809900D93BFF61DAF43420993EAE74E
:101EC0004BF0010B9AF8007014E79AF800700029A3
:101ED0007FF410AF012220210CE7002A41F0868018
:101EE000B14B1BF0200F149300F04A810D9C073476
:101EF00024F00703F3E802450D931BF0010F00F0F7
:101F0000D68154EA050300F0D28130238DF8697040
:101F10008DF868304BF0020B02233EE000250D9C4B
:101F20008DF8675054F8043B0E93002B00F09F8609
:101F3000711C00F02986324629460E9802F09AFB61
:101F4000002801F031802E460E9BC31A0A939DF89B
:101F5000678023EAE3730D94CDF818B007930F96CA
:101F6000B8F1000F00F09C80079B0133079397E0C6
:101F70004BF0200B9AF80070BCE647F630030D9C3E
:101F8000ADF8683054F8042B874B0D941493144625
:101F90000025022378274BF0020B002290468DF893
:101FA0006720721C00F087812BF08002069254EAB1
:101FB000050240F07E81002E40F0BF83002B58D1F7
:101FC0001BF001030A9300F0148530238DF8B7301D
:101FD0000DF1B7030E93D0E3002A41F017800D9A5C
:101FE0001BF0200F52F8043B0D9240F005851BF0CA
:101FF000100F40F0D0851BF0400F00F0CC85089A00
:102000001A8041E69AF800706C2F03BF9AF80170AD
:102010004BF0200B0AF1010A4BF0100B6AE64BF073
:10202000400B9AF8007065E6002A40F0DB871BF051
:10203000200F00F005810D9C073424F0070319469A
:10204000F1E8022314461D460D91002A73F10003A6
:10205000C0F2A784731C9DF8678000F099832BF071
:102060008003069354EA050340F09083002E40F06D
:102070005C8700262EAB0E930A967EE30121002298
:102080000D9C079154F8043B8DF867208DF8903033
:1020900024AB0D940A910E930026CDF818B00F963C
:1020A000069B13F0020302D0079A02320792069AA7
:1020B000239C12F0840B05D1099A0799551A002D1B
:1020C00000F373829DF8672072B10120229A0444C4
:1020D00002440DF16701072ACDE92224C9E9001065
:1020E00000F3D98209F108096BB10221229B0C444B
:1020F00001331AAA072BCDE92234C9E9002100F3E4
:10210000D88209F10809BBF1800F00F05C810A9BBD
:10211000F61A002E00F39F81069BDE0500F1F88081
:10212000229B0A9A01330E991444072B2394C9E980
:102130000012229300F3A38209F10809069B5A07B3
:1021400005D5099B079A9D1A002D00F3BE82DDE993
:10215000083207998A42ACBF9B185B180893002C81
:1021600040F0B38100230DF1B80922938CE5002AD9
:1021700040F040870D4B1BF0200F14937FF4B6AE58
:102180000D9B1BF0100F53F8044B0D9340F013847C
:102190001BF0400F00F00F84A4B20025ADE64BF019
:1021A000080B9AF80070A5E5A09200088C92000830
:1021B000002A40F023870D9C073424F00703F3E83E
:1021C000021214460D930B46CDE9103422F0004460
:1021D0000D4608464FF0FF322146C04B06F01EFD6B
:1021E000002840F01884284621464FF0FF32BB4BB0
:1021F00006F0F6FC002840F00E84DDE91001002214
:10220000002306F0E3FC002840F023869DF8678059
:1022100003210026B24AB34B0791472FC8BF1A4685
:102220002BF0800006900A910F960E9298E6002AF5
:1022300040F0E8864BF0100B1BF0200F7FF4FBAE54
:102240000D9B1BF0100F53F8044B0D9340F0A1832E
:102250001BF0400F00F09D8324B2E51722462B4669
:10226000F3E60D9A52F8044B0D921BF0100200F0A9
:10227000CA83002591E60D9B1BF0100F53F8044B09
:102280000D9300F032840025012386E6002A40F0F9
:102290000C86002F3FF4BCAD002301228DF867307F
:1022A00024AB07928DF890700A920E93F4E6022305
:1022B00073E6DDF818B0012B00F06A82022B00F003
:1022C00044822EA900E01146E20842EA4572E8087D
:1022D00004F0070305461446303354EA050001F8BC
:1022E000013C01F1FF32EED11BF0010F0E9200F024
:1022F000FC82302B00F00D8430230E9A023902F854
:10230000013C2EAB5B1ACDF818B00A930E9134E263
:10231000652F40F3ED80DDE910010022002306F077
:102320004BFC002800F044820121229B6E4A0B44A2
:102330000C44072B23942293C9E9002100F37184F4
:1023400009F108091B9B129A239C934203DB069B0D
:10235000DD077FF5F3AE229B139A013315991444E0
:10236000072BC9E90012CDE9223400F3738409F187
:102370000809129B5D1E002D7FF7E0AE102D229AFA
:1023800040F33384DDE90B871026DFF860B105E008
:1023900009F10809103D102D40F329840132103451
:1023A000072ACDE92224C9E900B6F1DD21AA414678
:1023B000384602F079FE00287FF431ADDDE92224B1
:1023C0000DF1B809E6E7099B079A9D1A002D7FF7E2
:1023D0009EAE102D229A40F31D86DFF810B14B46B9
:1023E0005846B1462146DDE90B64BB464FF0100864
:1023F000074604E0103D102D03F1080315DD0132FE
:102400001031072ACDE92221C3E90078F2DD21AAA3
:102410003146204602F048FE00287FF400ADDDE999
:102420002221103D102D2EABE9DC4E4699463B464D
:102430000C465F469B4601322C44072ACDE92224F4
:10244000C9E900B500F3F9830A9B09F10809F61AF6
:10245000002E7FF761AE102E229A40F3E984DFF858
:102460008CB02346DDE90B4859461025BB460F4684
:1024700004E0103E102E09F1080916DD0132103378
:10248000072ACDE92223C9E90075F2DD21AA2146F8
:10249000404602F009FE00287FF4C1ACDDE92223AA
:1024A000103E102E0DF1B809E8DC1C463B465F4695
:1024B0009B4601323444072ACDE92224C9E900B6FB
:1024C00000F35A8209F1080926E621AADDE90B107A
:1024D00002F0EAFD00283FF445AEA0E4FFFFEF7FE5
:1024E0007C92000880920008BC9200086C92000860
:1024F000129A229B012A04F1010403F1010509F15A
:10250000080640F3FD8101230E9A072DC9F800202B
:10251000CDE92254C9F8043000F35382139B0135EE
:10252000159A1C44072DCDE92254C6E9002300F377
:10253000548208366B1C1F46DDE91001B846129F15
:102540000A930022002306F10809013F06F034FB3C
:10255000002840F0E9810E9B3C440133B8F1070F9D
:10256000336023947760CDF8888000F34A8306F1C6
:1025700010034E46994605F10208169A1DAB144405
:10258000B8F1070F23947260CDF8888033607FF72D
:10259000D5ADDDE90B1021AA02F086FD00287FF4FD
:1025A0003EAC0DF1B809239CC8E5102D229A2ADD16
:1025B00049462046B1464FF010082E46DDE90B543F
:1025C000179304E0103E102E01F1080116DD0132D0
:1025D000C94B1030072ACDE92220C1E90038F1DDCE
:1025E00021AA2946204602F05FFD00287FF417AC9F
:1025F000DDE92220103E102E2EA9E8DC35460446E7
:102600004E468946179B0132BB492C44072ACDE927
:102610002224C9E9001500F3CA8209F1080951E52D
:1026200021AADDE90B1002F03FFD00287FF4F7AB93
:102630001B9B239C0DF1B809002B40F02383069BC4
:10264000129A03F0010313433FF478AD229A139BCF
:10265000013215991C44072A2394C9E900132292D8
:1026600000F3278409F10809129B01320E991C44DA
:10267000072ACDE92224C9E900137FF75DADDDE922
:102680000B1021AA02F010FD00287FF4C8AB239C98
:102690000DF1B80952E521AADDE90B10179302F0FC
:1026A00003FD00287FF4BBAB0DF1B809239C179BF9
:1026B0001AE521AADDE90B1002F0F6FC00287FF4F0
:1026C000AEAB0DF1B809239C1DE5102D229B20DD3A
:1026D000DDE90B87102604E0103D102D09F10809F3
:1026E00017DD0133844A1034072BCDE92234C9E9C0
:1026F0000026F1DD21AA4146384602F0D5FC00282B
:102700007FF48DABDDE92234103D102D0DF1B809B9
:10271000E7DC0133784A2C44072BCDE92234C9E9A0
:1027200000257FF714ADDDE90B1021AA02F0BCFCF7
:1027300000287FF474AB239C09E5012B00F0F5839E
:10274000022BDDF818B07FF4BCADDDF850C02EAA26
:10275000230943EA0573280904F00F0105461C46C6
:102760001CF8013002F8013D54EA0503F0D12EAB0C
:102770009B1A0E92CDF818B00A930A9BB342B8BFC9
:102780003346079300230F93FFF7EABBDDF818B039
:10279000002D08BF0A2C80F08680012330340A9374
:1027A0000DF1B7038DF8B740CDF818B00E93E4E7FC
:1027B0001B9B002B40F30A82129B0F9A9342A8BFE7
:1027C0001346002B1D460CDD229B0E9A01332C4430
:1027D000072B2394C9E90025229300F3C88309F14C
:1027E00008090F9B002DA8BF5B1B002B1D4600F3A3
:1027F000A6811B9A129B9A4280F27F81229B139999
:10280000013315980C44072B2394C9E90001229346
:1028100000F33C8309F108090F99129B9142A3EB45
:10282000020380F2BC811D46002D10DDDDE90E1093
:10283000229A014401322C44072AC9F8001023943B
:10284000C9F80450229200F3A08309F10809002D71
:10285000B4BF1D465D1B002D7FF770AC102D229A72
:1028600040F3C381DDE90B871026DFF890B005E067
:1028700009F10809103D102D40F3B98101321034DF
:10288000072ACDE92224C9E900B6F1DD21AA414693
:10289000384602F009FC00287FF4C1AADDE92224B1
:1028A0000DF1B809E6E72EABCDF818A0C246B04648
:1028B0001E4601E004460D460A2200232046294612
:1028C00006F0EAF9303206F8012D00230A222046EC
:1028D000294606F0E1F9002D08BF0A2CEAD232465B
:1028E0000E964646D046DDF818A02EAB9B1ACDF8C2
:1028F00018B00A9341E700BF5C9200086C92000890
:10290000069AD1073FF5FFAD01220E99072DC9F8B0
:102910000010CDE92254C9F8042000F3A08203F18D
:10292000020809F1100928E6002F7FF726AE102FC4
:1029300040F3C8832346DDE90B494FF01008DFF868
:10294000B4B50A9D05E00836103F102F40F3D3813F
:1029500001351033072DCDE92253C6E900B8F2DD69
:1029600021AA2146484602F09FFB00287FF457AA7F
:10297000DDE922532EAEE7E721AADDE90B1002F0D4
:1029800093FB00287FF44BAA0DF1B809239CFFF7B5
:10299000C3BBE51722462B46002A73F10003BFF69E
:1029A00059AB4FF02D08644265EB45058DF8678003
:1029B0000123FFF7F6BA0025FFF79FBA5446FFF749
:1029C0008DB921AADDE90B1002F06EFB00287FF41F
:1029D00026AADDE922542EAEA0E521AADDE90B10DE
:1029E00002F062FB00287FF41AAADDE922542EAE21
:1029F000A0E52EAB0E93C0E6089A1046D117C3E9A6
:102A00000001FFF741B91BF040031CBF1346A4B2FD
:102A10000025FFF7C2BADDE9100102460B4606F0B9
:102A2000FDF8002840F0368327F02003741C07933C
:102A300000F0A982472B00F0B680DDE910124BF4BC
:102A40008073151E0693C0F21B820023DDF84080C0
:102A50001793662F00F06481462F00F06181079B79
:102A60004246452B4FF002002B4600F061821FA921
:102A7000CDE9000604911CA81BA9CDE902100C9811
:102A800000F0DCFB672F0E90344640F05E821BF0B6
:102A9000010F40F05D821B9A1F9B0F920E9A9B1AAA
:102AA0001293079B472B40F080810F9BD81CC0F2EC
:102AB0007B819E42C0F27881129B19460F9B9942FE
:102AC00000F37D821BF0010F40F0DB82672723EAD1
:102AD000E37207920A93179B002B00F043822D2389
:102AE00000268DF86730FFF73FBA1BF0400F18BF84
:102AF000A4B200250123FFF750BA069BD8073FF583
:102B00007DAE0F99129B8A42A3EB020347DD1D465F
:102B10009DE60E9A2EAB9B1ACDF818B00A932CE6C0
:102B200040210C9801F002FB0B9B186018610028F3
:102B300000F0DA8240230B9A5361FFF796B8102B0E
:102B4000229A40F37981DDE90B871026DFF8A4B3E0
:102B500005E009F10809103D102D40F36F810132A5
:102B60001034072ACDE92224C9E900B6F1DD21AAF3
:102B70004146384602F098FA00287FF450A9DDE972
:102B800022240DF1B809E6E70E98FEF7E7FF2E467E
:102B90000346FFF7DBB9089A1A60FFF775B8129A77
:102BA0000F99551A40E6002E08BF012645E721AAD5
:102BB000DDE90B10179302F077FA00287FF42FA9B4
:102BC0000DF1B809239C179BFFF77CBA0120229ACC
:102BD000C54902440444072ACDE92224C9E900106A
:102BE0003FF71EAD09F1080926E5DFF808B3013209
:102BF0002C44072ACDE92224C9E900B57FF79CAA15
:102C00003DE521AADDE90B1002F04EFA00287FF421
:102C100006A9DDE922340DF1C00903F101082EAE49
:102C2000ABE421AADDE90B1002F03EFA00287FF4A4
:102C3000F6A80DF1B809FFF785BB21AADDE90B1055
:102C400002F032FA00287FF4EAA80DF1B809239CBB
:102C5000FFF75DBA21AADDE90B1002F025FA002882
:102C60007FF4DDA80DF1B809239CFFF782BB062E87
:102C7000334628BF06230A9307939C4B0D940E936B
:102C8000FFF70ABA229A1399013215980C44072AC1
:102C90002394C9E90001229200F30B8109F108098C
:102CA000002BBFF6E1AC5D42103380F22582DFF8E5
:102CB00044B210265F46DDF82C80DDF830B005E028
:102CC00009F10809103D102D40F3A881013210349C
:102CD000072ACDE92224C9E90076F1DD21AA41467F
:102CE000584602F0E1F900287FF499A8DDE9222492
:102CF0000DF1B809E6E71C4605F1010806F10802E6
:102D00003C44B8F1070F2394C6E900B7CDF888809A
:102D10003FF777AF08F1010802F1080916462CE4E5
:102D200003201FA9CDE9000604911CA81BA92B466E
:102D3000CDE9021042460C9800F080FA0E900E9BEE
:102D400084191B78302B00F081811B9B1C4440466A
:102D500029460022002305F02FFF002840F0A38021
:102D60001F9BA34206D230215A1C1F9219701F9B31
:102D70009C42F9D80E9A9B1A12931B9B0F93079BA8
:102D8000472B3FF492AE662F0FD10F9A0BF0010341
:102D9000002A43EA060340F3DE80002B40F0638103
:102DA0000F9B07930A9396E6023F0F9B8DF8747072
:102DB0005A1E002AA8BF2B231B92BCBFC3F10102DD
:102DC0002D23092A8DF8753040F396800DF1830488
:102DD0002046474D01E008461A4685FB0231D317CD
:102DE000C3EBA10303EB8301A2EB41013031632A62
:102DF00000F8011C00F1FF31EDDC3033821EDBB244
:102E0000944201F8013C40F26C810DF1760201E040
:102E100011F8013B8C4202F8013BF9D10DF1850319
:102E20000DF176021B1A13441DAA9B1A16936BE030
:102E3000DFF8C0B0FFF73DBBDFF8B8B001322C447B
:102E4000072ACDE92224C9E900B540DC09F10809C7
:102E5000CFE42D2398468DF86730FFF7D9B921AA22
:102E6000DDE90B1002F020F900287EF4D8AFDDE98F
:102E700022342EAE03F101080DF1C009FFF77DBB2E
:102E80002D23884602F100451793E2E521AADDE9EA
:102E90000B1002F009F900287EF4C1AF0DF1B8095A
:102EA0001B9A239CB8E4234664E78DF86710FFF76C
:102EB000F0B921AADDE90B1002F0F6F800287EF443
:102EC000AEAFDDE922240DF1B8091B9BE8E621AA8B
:102ED000DDE90B1002F0E8F800287EF4A0AF0DF158
:102EE000B809239C85E400BFBC920008B492000896
:102EF000676666666C92000830231A448DF8763057
:102F000004238DF877201693129A169B012A1344F6
:102F10000A9340F3B0800A9B139A13440A9323EA5E
:102F2000E373079300230F93D5E5DDF818B034E47D
:102F30001FA9009004911CA81BA9741CCDE90210C4
:102F400001940C9800F07AF90E90472F3FF49FAD52
:102F50000E9B1C44FBE6002B40F0AC800123079342
:102F60000A93B8E5179E9DF86780FEF7F9BF21AA7E
:102F7000DDE90B1002F098F800287EF450AF0DF157
:102F8000B809239C2DE4062657E521AADDE90B109C
:102F900002F08AF800287EF442AF1B9B129A239C11
:102FA000D31A0DF1B80952E407960A960D94064615
:102FB000CDF818B00F909DF86780FEF7D1BFDDE91E
:102FC000123213440F9A0A93002A06DC0F9B0A9AC6
:102FD000C3F101031A4413460A9223EAE3730793E9
:102FE000672778E58DF86710FFF721B88DF867102F
:102FF000FEF776BF8DF86710FFF7BCB88DF8671045
:10300000FFF7D9B88DF86710FFF714B98DF867107E
:10301000FEF7E5BFDFF8F0B0FFF70DBABB460132AF
:103020002C44072ACDE92224C9E900B57FF71AAB61
:10303000DDE90B1021AA02F037F800287EF4EFAE8C
:10304000DDE922240DF1B809FFF70EBB4046294601
:103050000022002305F0B0FD00287FF476AEC6F113
:1030600001031B9372E6139BD31833440A9323EA9C
:10307000E37307932FE51BF001020F927FF44BAF30
:10308000F5E70F9B139A672713440A9323EAE37328
:10309000079320E5119B0321002BB7BF2D239DF83B
:1030A000678098468DF8673007910026144A154BC3
:1030B000FFF7B3B8139B013333440A9323EAE37356
:1030C000079308E54A46DFF840B019E60D9B9AF8E9
:1030D000017053F8046B824646EAE6760D93FEF7DC
:1030E00009BE022316930FE74FF0FF320C2308921C
:1030F0000C9A1360FEF79CBEDFF80CB08FE700BFA0
:1031000084920008889200086C9200080000000079
:103110002DE9F04F03690E6983B0B342C0F2898094
:10312000013E01F1140500F1140955F8263059F853
:10313000262001338246B000009005EB00089A4239
:103140004844B2FBF3F701903CD30022AE4614464C
:10315000CC465EF8043BDCF800001FFA83FB07FB5B
:103160000B221B0C4FEA124B07FB03BB93B2E31A73
:1031700082B21FFA8BF41344C4EB104404EB2344D3
:103180009BB243EA0443F0454CF8043B4FEA244425
:103190004FEA1B42DDD2009B59F8033093B9019AE4
:1031A000131F99450CD252F8043C4BB9A2F1080305
:1031B00002E01A68043B1AB9994506F1FF36F8D3C4
:1031C000CAF81060504601F037FD00282DDB484654
:1031D0000023013755F8041B04688AB29A1A0B0CB5
:1031E000A1B20A44C3EB144303EB224392B242EA76
:1031F0000342A84540F8042B4FEA2343EAD259F88A
:10320000262009EB860382B91A1F91450BD253F889
:10321000042C42B9083B02E01A68043B1AB99945EC
:1032200006F1FF36F8D3CAF81060384603B0BDE89F
:10323000F08F002003B0BDE8F08F00BF2DE9F04F04
:103240001F461646036C97B00446CDE902674BB1A2
:103250000122456C1946AA40C3E9015201F07AFAED
:10326000002323643E1EB4BF01230023239AB8BF6A
:1032700026F000461360764BB8BF0396B34300F0C8
:10328000AF80DDE902231046194600220023CDE974
:10329000080105F091FC074678B10123229A1360DA
:1032A000249B002B00F041836A4B249A1360013B5E
:1032B0000493049817B0BDE8F08F14AA15ABCDE9BC
:1032C0000032DDE90889204642464B4601F0E2FD26
:1032D000350D834640F09A80DDE91485454405F2BA
:1032E0003243202B40F3F183C3F140039E40029B05
:1032F00005F2124023FA00F0304305F07BF9024654
:103300000120013D0D90A1F1F873104619460022ED
:10331000514B05F031F848A3D3E9002305F0E4F957
:1033200047A3D3E9002305F029F8064628460F46AF
:1033300005F070F944A3D3E9002305F0D5F902465E
:103340000B463046394605F019F806460F4605F09B
:103350007BFC0022824600233046394605F036FCCD
:10336000002840F0D582A8EB05056B1EBAF1160FB8
:10337000059300F2C282DDE90801384B03EBCA0372
:10338000D3E9002305F022FC00286DD000230C9324
:10339000059B0AF1FF3A002BC0F2B5824FF00009FD
:1033A000BAF1000F66DACAF100030B93209BA9EB78
:1033B0000A09092BCDF818A04FF0000A63D8052B95
:1033C00040F381830025043B2093209B023B032B89
:1033D00000F27A86DFE813F0A804A5047E049804BE
:1033E00042F20F73229AC6F313061360029B334313
:1033F00019D1249B002B00F07686194B04930833D7
:10340000249A0498136017B0BDE8F08FC9F3130134
:1034100041F07F534246A5F2FF350D9743F4401328
:10342000DDF8508071E7249B002B40F041840D4B68
:1034300004933EE7AFF3008061436F63A787D23FF9
:10344000B3C8608B288AC63FFB799F501344D33F93
:103450000000F07FBD9200080000F83F28930008AC
:10346000C4920008C0920008059B0C90002BC0F28B
:103470004A828146059B5344CDE9053A00230B93CC
:10348000209B092B9BD900230125209321934FF0EA
:10349000FF330A9507930021079B61641093204630
:1034A00001F032F90490002800F01686049B236492
:1034B000079B0E2B00F23481002D00F0318106991C
:1034C000002940F37384AA4B01F00F0203EBC203FF
:1034D0000D11D3E90023CDE90E23EA0640F13C8427
:1034E000DDE90801A34B0327D3E9082305F026FAF9
:1034F000CDE9020105F00F057DB1DDE90E019D4E1C
:10350000EB0704D5D6E9002305F0EEF801376D107E
:1035100006F10806F4D1CDE90E01DDE90201DDE98D
:103520000E2305F00BFACDE902010C9B43B1DDE956
:1035300002010022904B05F049FB002840F03A853B
:10354000384605F067F8DDE9022305F0CDF88B4B2E
:10355000002204F013FFA1F15073CDE90E010F9387
:10356000079B002B00F0BC80069B1293079B1193D6
:10357000DDE902673946304605F066FB054605F091
:1035800049F802460B463046394604F0F5FE119ADA
:10359000774B064603EBC2030F46DDE90E120A988D
:1035A000CDE9021253E90223049930355FFA85F818
:1035B0004D1C002800F090840020714905F0BEF9F0
:1035C000DDE9022304F0D8FE049B324683F8008034
:1035D0003B46CDE9020105F017FB002840F0CB8403
:1035E00032463B460020644904F0C6FE02460B46C4
:1035F000DDE9020105F008FB002840F05185119B30
:10360000012B00F08980049ACDF844901344CDF842
:103610004CA0CDF838B09946DDE902ABA0460FE0EA
:1036200032463B460020544904F0A6FE52465B4613
:1036300005F0CCFA002840F002854D4500F00885E1
:103640005046594600224F4B05F04EF800224D4B94
:1036500082468B463046394605F046F80F46064608
:1036600005F0F2FA044604F0D5FF02460B46304658
:10367000394604F081FE3034E4B205F8014B52467D
:103680005B4606460F4605F0A1FA0028C8D044461E
:10369000129BDDF838B0013306935946204601F0FD
:1036A00059F800232B70229B1A46069B1360249B1B
:1036B000002B3FF4FEAD04981D6017B0BDE8F08FFD
:1036C000384604F0A7FFDDE9022305F00DF82B4B87
:1036D000002204F053FEA1F15073CDE90E010F93C7
:1036E0000022DDE90201284B04F046FEDDE90E78F8
:1036F0003A46434605460E4605F086FA0746002838
:1037000040F0D483DDE90E01024601F10043284672
:10371000314605F05BFA30BBDDE90823CDE9022331
:10372000159B002BC0F2C780069A0E2A00F3C380B7
:103730000F4B03EBC203D3E9009A219B002B25DA40
:10374000079F002F22DC40F06A8400220E4B48467F
:10375000514604F0C9FFDDE9022305F04BFA0028C9
:1037600000F0A583079F3E46219B049DDB4373E247
:1037700028930008189400080000F03F00001C4047
:103780000000E03F0000244000001440DDE9026733
:103790004A4653463046394605F0D0F805F054FA0B
:1037A000804604F037FF4A46534604F09DFF024628
:1037B000304646460B46394604F0DEFD049D303661
:1037C000069F05F8016B079E0137012E02460B4646
:1037D000069744D00022CA4B04F086FF0022002343
:1037E00006460F4605F0E8F900287FF456AFCDF8FD
:1037F00008B04FF00108DDF81CB005940CE0002281
:10380000BF4B04F071FF0022002306460F4605F06F
:10381000D3F9002840F041834A46534630463946A2
:1038200005F08CF805F010FA044604F0F3FE4A4661
:10383000534604F059FF02460B463046394604F021
:103840009BFD08F1010804F13006C34502460B4612
:1038500005F8016BD3D1A046DDF808B0059C1046F1
:10386000194604F08BFD4A46534606460F4605F0BE
:10387000CBF960B94A4653463046394605F09CF9C3
:1038800000283FF40AAF5FEAC8717FF506AF15F86C
:10389000018C6B1E049A04E09A4200F0B18313F885
:1038A000018DB8F1390F03F10105F5D008F10102DE
:1038B000D2B21A70F1E60A9A002A3CD0209A012A64
:1038C00040F36782079B5F1E0B9BBB4280F24282E4
:1038D0000B9B0B97FB1A00279A44079B002BC0F207
:1038E000E182059A4D4611461944059199440121FA
:1038F000204601F033F8064620E001230C93059B97
:10390000002BBFF64BAD0023C5F10109059347E538
:10391000504604F07FFE32463B4605F04DF9002844
:103920007FF421AD0AF1FF3A1DE5764B049304982C
:1039300017B0BDE8F08F4D460B9F0A9E002D0BDDA2
:10394000059A002A08DDAA421346A8BF2B46A9EB18
:103950000309ED1AD31A05930B9BD3B10A9B002BD5
:1039600000F09F81002F10DD31463A46204601F0DD
:10397000B1F85A4601460646204601F005F80346CE
:10398000594620469B4600F0E5FE0B9BDA1B40F0B3
:1039900089810121204600F0E1FFBAF1000F0746BE
:1039A00000F39980209B012B40F38781002308932B
:1039B0000120BAF1000F40F09A80059A104410F0EF
:1039C0001F0079D0C0F12003042B40F36E83C0F1B7
:1039D0001C000244814405440592B9F1000F05DD45
:1039E00059464A46204601F0C1F88346059B002B04
:1039F00005DD39461A46204601F0B8F807460C9B0B
:103A0000002B40F03381079B002B40F30A810A9B77
:103A1000002B40F08680069B01330693049D4FF0F7
:103A20000108DDF81C9008E0594600230A222046D0
:103A300000F09AFE834608F1010839465846FFF720
:103A400067FBC14500F1300005F8010BECDC0346D3
:103A50004FF0000A594601222046029301F086F8F1
:103A60003946834601F0E8F8002815F8012C40F3A8
:103A70007B816B1E049904E0994200F0838113F866
:103A8000012D392A03F10105F6D001321A703946A9
:103A9000204600F05FFE002E3FF4FFADBAF1000FAC
:103AA00005D0B24503D05146204600F053FE3146C2
:103AB000204600F04FFEF0E51C20059B81440344A6
:103AC0000544059389E701257FE4C3F12006029BA5
:103AD00003FA06F011E401465246204600F0FAFFD0
:103AE000209B0746012B40F38B81002308933B6901
:103AF00007EB8303186900F0E1FEC0F120005CE7EA
:103B000000002440BC920008314600230A222046CF
:103B100000F02AFE109B0646002B40F3B982CDE947
:103B20000683002D05DD31462A46204601F01EF8A9
:103B30000646089B002B40F09981B1460499029BF0
:103B4000884603F001024B1E20990B920A430A9209
:103B5000079A1A44089239465846FFF7D9FA31466F
:103B60000290584601F068F84A4682463946204697
:103B700001F07EF8029BC26805463033002A42D12C
:103B800001465846079301F057F82946059020460C
:103B900000F0E0FD059A079B1AB90A99002900F088
:103BA0006082BAF1000F08F10105C0F2418120994D
:103BB00041EA0A0A0B9951EA0A0100F03981002A08
:103BC00000F37781089A88F80030424500F07E8142
:103BD000594600230A22204600F0C6FD4E45834682
:103BE00031464FF000034FF00A02204613D000F098
:103BF000BBFD4946064600230A22204600F0B4FDDC
:103C0000A8468146A7E701462046059300F0A2FD9D
:103C10000122059BC5E700F0A7FDA84606468146A0
:103C200099E7209B022B40F38280079B002B7FF4B7
:103C30009BAD39460522204600F096FD0146074619
:103C4000584600F0F9FF00287FF78EAD3122049D21
:103C5000069B05F8012B01330133394620460693B4
:103C600000F078FD002E7FF422AF16E53946584665
:103C700000F0E2FF0028BFF6C6AE594600230A2234
:103C8000204600F071FD069B834603F1FF380A9B36
:103C9000002B7FF439AF109B002B40F3EF8107938B
:103CA000BCE60B9A5946204600F014FF834670E6A6
:103CB000BA4B04930333FFF7A3BBDDE902120029DB
:103CC0007FF474AEC2F31303002B00F0A480029BB8
:103CD00008936DE601230A93219B002B3FDD1E46CE
:103CE000109307930021172E61647FF7D8AB012250
:103CF00004235B0003F11400B042114602F10102FB
:103D0000F7D96164FFF7CBBB01230A93219B069A85
:103D1000134410930133012B1E460793B8BF0126AD
:103D2000E0E700230A93F1E700230A93D4E70A9B14
:103D3000002B7FF4F6AE39465846FFF7E9F9069AAC
:103D4000049D00F130030132069205F8013B4FF06B
:103D5000000A7FE6DF1BC0E50227FFF7CDBB01238A
:103D600021930793FFF797BB03D1029BDB073FF536
:103D700080AE6B1E01E013F8012D302A03F101051E
:103D8000F9D084E63123069A01320692049A137020
:103D90007DE60D9A002A00F0F380059A03F2334382
:103DA0001A444D46059299440B9FA0E500F0F2801D
:103DB000DDE90801069B5D42794B05F00F0203EB3C
:103DC000C203D3E9002304F08FFC2D11CDE90201D9
:103DD00000F0E08000230227724EEA0705D5D6E9FD
:103DE000002304F081FC01231F446D1006F1080636
:103DF000F3D1002B3FF499ABCDE90201FFF795BB5E
:103E0000029B002B7FF471AEDDE90212C2F31303B3
:103E1000002B40F04F81644B1340002B00F0FD80DD
:103E2000059B09F101090133059301230893BFE5BF
:103E30000699002A01F10101069112DD594601227D
:103E40002046059300F092FE3946834600F0F4FECA
:103E50000028059B40F3ED80392B00F0D880029BB1
:103E60003133B24688F800304E4610E6716820467D
:103E700000F04AFC0546002800F01F81336906F176
:103E80000C0102339A000C30FDF7F2FD29460122A5
:103E9000204600F06BFE814650E6DDF808B0059C38
:103EA000FFF7FBBB079BA9EB030520E500273E4678
:103EB000CCE6069A392B02F10102069200F0A780A7
:103EC0000133B24688F800304E46E0E5069AB24625
:103ED000013206924E46BDE5DDE9020104F004FC24
:103EE000049BCDE9020183F80080119B012B22D0B5
:103EF000119B049ACDF838901344994600222B4B1D
:103F00003046394604F0F0FB0F46064604F09CFEAE
:103F1000804604F07FFB02460B463046394604F0EB
:103F20002BFA08F1300805F8018B4D4506460F467F
:103F3000E4D1DDF838900022DDE902011C4B04F0E9
:103F40001DFA32463B4604F041FE00286BD1DDE904
:103F500002230020164904F00FFA32463B4604F0D3
:103F600053FE00283FF4D8AB00E0154615F8013C9D
:103F70006A1E302BF9D0129B01330693FFF78DBBDD
:103F8000149B059AC3F136031A444D460592994491
:103F90000B9FACE40227FFF7C8BA00BFC09200082D
:103FA00028930008189400080000F07F00002440C7
:103FB0000000E03F079B002B3FF482AB109D002DDB
:103FC0007FF7AAABDDE9020100224E4B04F08CFB27
:103FD000CDE90201781C04F01DFBDDE9022304F0A9
:103FE00083FB0022484B04F0C9F9069AA1F15073F3
:103FF000013ACDE90E0112920F931195FFF7B8BA6D
:10400000069A0132069231221A70FFF746BB392216
:10401000B24688F800204E462BE50893C8E40027F6
:104020003E46FFF7A1BB129B0133069315F8018CA6
:104030002FE47FF416AFDA077FF513AF0CE74346A2
:10404000A0461C46129BDDF838B00133069320E4ED
:10405000DDF84490DDF84CA0DDF838B04446FFF7B9
:104060005BBB069A392B02F10102069208F10105A9
:10407000CDD0BAF1000F3FF7F2AEF2E6209B022B53
:1040800002DCCDF8188056E6109BCDE90683CCE51E
:10409000209B022BF8DC109BCDF81880079340E59D
:1040A000129B01330693FFF7F4BB3FF496ACC0F1CB
:1040B0003C0002E5029B089319E50246134B40F2CF
:1040C000EA21134801F0A4FD002520466564294635
:1040D00000F01AFB049050B90C4B00224FF4D5713C
:1040E0000B4801F095FD0B4B0493FFF7E2B84FF03E
:1040F000FF33079310930123049A219522640A93B6
:10410000FFF70EBB0000244000001C40D0920008C6
:10411000E4920008C4920008F030704700487047ED
:104120004809002000487047480900202DE9F04F59
:1041300001F10B05162D83B0064623D8102900F295
:10414000B68000F0DDFA102518230220D14F3B4441
:104150005C68A3F10802944200F0B6806368E168ED
:1041600023F0030323445A68A56842F00102E96082
:1041700030468D6008345A6000F0C4FA204603B01F
:10418000BDE8F08F35F0070500F19180A94200F2FB
:104190008E8000F0B5FAB5F5FC7FC0F090816B0A17
:1041A00000F08C80042B00F26081AB0903F1390030
:1041B00003F1380CC100B74F39444C680839A142AB
:1041C00006D10CE0002A80F22981E468A14206D0E1
:1041D000636823F003035A1B0F2AF3DD60463C6932
:1041E000DFF8B4C264457AD0636823F003035A1B36
:1041F0000F2A00F37281002AC7E904CC80F26381A0
:10420000B3F5007F80F00E810122DB089910134482
:104210008A40796857F833E007EBC3080A43A8F1EE
:104220000801C4E902E17A6047F83340CEF80C4057
:10423000012483109C40944257D8144206D120F0A8
:1042400003006400144200F10400FAD007EBC00937
:10425000CE468046DEF80C309E4507D111E1002A9B
:1042600080F21E81DB689E4500F00B81596821F0C9
:1042700003014A1B0F2AF2DD45F001083046D3E95D
:1042800002E41D4442F00106C3F80480CEF80C405D
:10429000C4F808E0C7E90455C5E902CC6E605A507D
:1042A000009300F02FFA009B03F1080402E00C23B6
:1042B00000243360204603B0BDE8F08F4FF4007156
:1042C00040204FF03F0C76E7DC68A34208BF023085
:1042D0007FF444AF3C69DFF8C0C1644584D1012458
:1042E0007A6883109C409442A7D9BC68636823F025
:1042F0000308A84503D3A8EB05030F2B7EDCDFF8EA
:104300009C91D7F80824D9F80030013204EB080A50
:104310002B4400F02D8103F580530F3323F47F6B82
:104320002BF00F0B5946304600F0ACFE411C024604
:1043300000F0ED80824500F2E880D9F8041059447D
:10434000C9F804100B4600F04981D7F80814013170
:104350001BBFA2EB0A0A5344C7F80824C9F804306B
:1043600012F0070300F01081C3F108010A44C3F5FD
:10437000805193440831A1EB0B01C1F30B0A514664
:1043800030460193009200F07DFE421CDDE90023DF
:1043900000F04981831A03EB0A0BD9F804104BF0A3
:1043A00001035144BC42BA60C9F80410536000F0E4
:1043B0002181B8F10F0F40F21F814FF0050C6368A7
:1043C000A8F10C0020F0070003F00103034304EB05
:1043D000000E0F286360CEE901CC00F22B81144659
:1043E0005368D9F82C208A42D9F8302038BFC9F850
:1043F0002C108A4238BFC9F830108AE045F001021B
:1044000043F00103254462603046BD6008346B60B0
:1044100000F078F9204603B0BDE8F08F23445A68D5
:10442000E168A1E65A0A042A69D9142A00F2BE807A
:1044300002F15C01C9005B3207EB010E7958AEF165
:10444000080E8E4500F097804A6822F003029A42D7
:1044500002D989688E45F7D1D1F80CE07A68C4E9B1
:10446000021ECEF80840CC60E2E6142B5FD9542B34
:1044700000F2A4802B0B03F16F0003F16E0CC1005E
:1044800099E608F1010818F0030F0EF1080E7FF409
:10449000E1AE57E04804002050040020700C0020DA
:1044A0001C4619444A68DB6854F8085F42F0010270
:1044B0004A603046EB609D6000F024F9FAE6E808B7
:1044C00005F1080342E623445A68304642F00102EF
:1044D0005A60083400F016F9ECE645F0010E42F09F
:1044E00001012544C4F804E03046C7E90455C5E994
:1044F00002CC6960E25000F005F90834DAE69A0966
:1045000002F13901C900383296E7BC4260D0BC687C
:10451000636823F0030BAB45ABEB050302D30F2B12
:104520003FF76CAF304600F0EDF80024C2E603F12F
:104530005C0003F15B0CC1003DE659F808394B45BE
:1045400040F0968010F0030F00F1FF30F5D17B684A
:1045500023EA04037B6064009C423FF6C6AE1CB9AC
:10456000C3E6640008F104081C42FAD040466DE638
:1045700003F1100BD6E64FF001087B68921008FAA1
:1045800002F21A437A606AE702EB0B014942C1F377
:104590000B0A514630460193009200F073FD431C14
:1045A000DDE900237FF4F6AE9A46F6E6542A26D8D3
:1045B0001A0B02F16F01C9006E323DE7B3F5AA7F15
:1045C00026D8EB0B03F1780003F1770CC100F2E57C
:1045D000D9F804305B44C9F80430B6E6CAF30B00DE
:1045E00000287FF4B2AE08EB0B03BC6843F0010374
:1045F0006360F6E61446F4E60123536092E7B2F5F1
:10460000AA7F21D8DA0B02F17801C900773213E7CB
:1046100040F25452934221D8AB0C03F17D0003F1D8
:104620007C0CC100C7E5083B9B44ABEB020B4FF091
:10463000000AB2E604F10801304601F0B1FBBC68A3
:10464000D9F804106368CCE640F254518A420BD882
:104650009A0C02F17D01C9007C32EDE64FF47E71C7
:104660007F204FF07E0CA6E54FF47E717E22E3E6BC
:104670007B6870E7830770B4CDB23DD0541E0AB397
:104680000378AB421FD0431C05E014F1FF3419D36B
:104690000278AA4217D013F0030F184603F1010362
:1046A000F3D1032C11D84CB30378AB420BD00444A4
:1046B000431C02E00278AA4205D09C42184603F14E
:1046C0000103F7D1002070BC704702460E02B6B25B
:1046D0002E4346EA0646136810467340A3F10131A3
:1046E00021EA030313F0803F02F10402DCD1043C11
:1046F000032C1046EFD8D6E71446D2E72046E2E76F
:10470000704700BF704700BFC36C70B505460C46CC
:104710004BB153F8240080B1026843F824200023F1
:10472000C0E9033370BD2122042101F095FA03464C
:10473000E8640028EDD1002070BD012101FA04F6E3
:10474000721D2846920001F087FA0028F3D0C0E9D4
:104750000146E4E731B1C36C4A6853F822000860AF
:1047600043F82210704700BFF0B54FF0000C0C4624
:1047700005460E6983B001F1140738680CF1010C8D
:1047800081B202FB0133000C190C02FB00109BB23A
:1047900003EB0043664547F8043B4FEA1043ECDC6B
:1047A0003BB1A268B24207DD04EB860201365361D9
:1047B0002661204603B0F0BD6168284601310193AF
:1047C000FFF7A2FF019B0746B8B1226904F10C0173
:1047D000023292000C300193FDF74AF9EA6C6168ED
:1047E000019B52F82100206042F821403C4604EB36
:1047F0008602013653612661DBE70246024BB52192
:10480000024801F005FA00BFD09200084094000869
:104810002DE9F8431D46264E083386FB0346092D35
:104820004FEAE37390460746C3EB66020C46089EC8
:1048300036DD012300215B009A4201F10101FADC1F
:104840003846FFF761FF68B30123B8F1090FC0E9EB
:10485000043613DC4FF009080A3445450CDDA5EB9E
:104860000805254414F8013B0146303B0A2238462E
:10487000FFF77AFFA542F5D1BDE8F88304F10909F5
:104880004E46444416F8013B0146303B0A22384666
:10489000FFF76AFFB442F5D1A8F108044C44DCE705
:1048A0000021CDE70246034BCE21034801F0B0F9C9
:1048B000398EE338D092000840940008020C1204AC
:1048C0000346CAB90304102013F07F4F04BF1B0234
:1048D000083013F0704F04BF1B01043013F0404F39
:1048E00004BF9B000230002B05DB13F0804F00F16A
:1048F000010008BF202070470020E5E7036801465B
:1049000013F0070207D0DA0720D4980722D55B08F6
:104910000B600120704798B2B0B910201B0C13F047
:10492000FF0F04BF1B0A08301A0704BF1B0904301D
:104930009A0704BF9B080230DA0703D45B0800F132
:10494000010005D00B6070471046E8E70020704773
:10495000202070479B080B600220704710B50C4662
:104960000121FFF7D1FE024618B10123C0E904344A
:1049700010BD034B4FF4A071024801F049F900BF8C
:10498000D0920008409400082DE9F04F0E69176995
:1049900083B0BE420C46154605DB3A462B463746E9
:1049A0000D4616461C46AB68696807EB060843458A
:1049B000B8BF0131FFF7A8FE009000287FD0009B10
:1049C00003F1140A0AEB8809CA4505D253460021AF
:1049D00043F8041B9945FBD804F1140E0EEB860B2B
:1049E00005F11403DE4503EB870753D2CDF80480AD
:1049F000984605E0090C28D1F3450AF1040A47D985
:104A00005EF8041B8EB2002EF4D0454654460023B7
:104A100055F8041B20688AB21FFA80FC06FB02C20C
:104A2000090C000C06FB0101134401EB13429BB27D
:104A300043EA0243AF4244F8043B4FEA1243E7D84B
:104A400023605EF8041C090CD6D0DAF8003040462A
:104A50001A4654464FF0000C0588120C01FB052243
:104A60009BB2944443EA0C4344F8043B50F8043BA3
:104A700022681B0C95B201FB0353874203EB1C43D6
:104A80004FEA134CE8D8F34523600AF1040AB7D87B
:104A9000DDF80480B8F1000F0BDD59F8043CA9F1F2
:104AA00004091BB105E059F8043D13B9B8F1010838
:104AB000F9D10098C0F8108003B0BDE8F08F02462D
:104AC000024B40F25D11024801F0A2F8D0920008BA
:104AD0004094000812F003032DE9F0411446074604
:104AE0002ED10D46A4101CD0BE6C96B3E3074FF038
:104AF000000806D4641014D03068A8B10646E30755
:104B0000F8D5324629463846FFF73EFFB5B16A6808
:104B1000FB6C641053F82210296043F822500546BC
:104B2000EAD12846BDE8F081324631463846FFF7E3
:104B30002BFF3060C0F800800646E0E70546D9E765
:104B4000094A013B52F823200023FFF70DFE0546DA
:104B5000C8E740F271213846FFF700FF0023B86430
:104B600006460360C2E700BF189300082DE9F8432A
:104B70000E694FEA62198B684E44741C9C420D46C4
:104B800090460746496804DD5B009C4201F1010143
:104B9000FADC3846FFF7B8FD002842D0B9F1000F23
:104BA00000F1140C0EDD6346002109F105094FEAFE
:104BB000890900EB090243F8041B9342FBD1A9F1D8
:104BC0001409CC44296905F1140318F01F0803EBFC
:104BD000810E1DD00022C8F12009196801FA08F1E0
:104BE00011434CF8041B53F8042B734522FA09F2C5
:104BF000F3D3002A18BF2646CCF80020FB6C6A6865
:104C0000066153F82210296043F82250BDE8F8836A
:104C1000ACF1040C53F8042B9E454CF8042FF9D842
:104C2000ECE70246024B40F2D911024800F0F0FFD7
:104C3000D09200084094000830B40B690546006922
:104C4000C01A10D19B001435143119442B4401E0D3
:104C50009D4208D253F8044D51F8042D9442F7D0E8
:104C600003D24FF0FF3030BC7047012030BC70479A
:104C70002DE9F04716460F6912690D46BF1A002F3D
:104C80006AD1920001F1140C06F114010CEB02033D
:104C9000114401E09C4562D253F8042D51F8044DB3
:104CA000A242F7D053D36968FFF72EFD002860D0E9
:104CB000D5F810C03369143506F11402C76005EB4E
:104CC0008C0E02EB830800F11407002100E0374648
:104CD0003E4655F8049B52F8044B1FFA89F30B44E7
:104CE0001FFA84FA210CA3EB0A03C1EB194101EB73
:104CF00023419BB243EA014390454FEA214146F8E4
:104D0000043B2C46E3D8AE4516D9324654F8047B12
:104D1000BBB20B44191401EB17419BB243EA0143A8
:104D2000A64542F8043B4FEA2141EFD80EF1FF3788
:104D30007F1B27F0030737442BB957F8043D0CF1CC
:104D4000FF3C002BF9D0C0F810C0BDE8F0872B461F
:104D5000012735461E46A6E7F9DB0027A3E7002119
:104D6000FFF7D2FC60B101220023C0E90423BDE8B3
:104D7000F0870246064B4FF41071064800F048FFDA
:104D80000246034B40F23221024800F041FF00BFCF
:104D9000D0920008409400080E4B0B40A3F15073D2
:104DA000002B02DD0020194670475B421B15132BB8
:104DB00005DC4FF40022002042FA03F17047143B57
:104DC0001E2BD6BF4FF00042012322FA03F300212D
:104DD000184670470000F07F2DE9F041076900F1A7
:104DE000140606EB870757F8048C4046FFF766FD6C
:104DF000C0F120030A280B60A7F1040230DD9642BF
:104E0000A0F10B031DD257F8080C23B3C3F1200106
:104E100020FA01F208FA03F848EA0208A7F10802AA
:104E200048F07F55964200FA03F045F4401503D24E
:104E300057F80C3CCB401843044629462046BDE8B1
:104E4000F0813BB108FA03F343F07F5545F4401578
:104E50000020F1E7184648F07F5545F44015EBE790
:104E600096422CBF002257F8082CC0F10B0328FAF9
:104E700003F138BFDA4000F1150341F07F5508FA1D
:104E800003F345F4401543EA020420462946BDE8F1
:104E9000F08100BF70B5012182B016461C46FFF7B5
:104EA00033FC054600284CD02346C4F30A54C3F310
:104EB00013030CB143F48013002E019322D06846F3
:104EC0000096FFF71BFD002837D0019BC0F12002A0
:104ED000009903FA02F20A43C34001936A61002B6E
:104EE00014BF02210121AB612961B4B1069BA4F278
:104EF000334404441C60079BC0F135001860284609
:104F000002B070BD01A8FFF7F9FC0123019A194610
:104F10002030C5E90432002CE8D1069A05EB810364
:104F2000A0F2324010601869FFF7C8FC079BC0EB85
:104F300041101860284602B070BDDDE900236A61A7
:104F4000CDE70246024B40F20A31024800F060FE13
:104F5000D0920008409400082DE9F04383B00F463A
:104F600069460646FFF738FF04460D46384601A954
:104F7000FFF732FF36693A698946DDE90013B61A50
:104F8000CB1A03EB4613002B80460BDD05EB0357D2
:104F90003D4642464B462046294603F0CFFC03B02F
:104FA000BDE8F083C3EB033309EB03518946F0E717
:104FB0001728D0B504460ADD002000260749084F0F
:104FC00032463B4603F090FB013CF9D1D0BD054B86
:104FD00003EBC004D4E90401D0BD00BF0000F03FE2
:104FE000000024401893000870B414694E1E02F1AA
:104FF0001403761103EB840101368B4200EB860625
:105000000CD2041F53F8045B994244F8045FF9D8AA
:105010008B1A153B23F0030304331844864204D94A
:10502000002340F8043B8642FBD870BC704700BFA9
:1050300003694A11934210B400F114040FDA04EB2F
:1050400083039C421CD253F8040C043B18B114E0B7
:1050500053F8042D8AB99C42FAD310BC704704EB74
:105060008203EEDD11F01F01EBD054F8220020FA8C
:1050700001F202FA01F18842E3D0012010BC70472E
:105080000020EAE738B50023064C054608462360B1
:1050900003F056F9431C00D038BD2368002BFBD029
:1050A0002B6038BDA80C00202DE9F04F936883B029
:1050B0009046002B6DD0176882460C46086808376A
:1050C0008D6843E0A38913F4906F2ED0D4E90415C2
:1050D00005EB4505A0EB010B05EBD5750BEB0600C9
:1050E0006D100130A8422A4684BF05462A465B055A
:1050F00036D511465046FFF719F800283AD05A46DF
:1051000021690190FCF7B4FCA289019B22F4906212
:1051100042F08002A281A5EB0B0203EB0B0065615C
:10512000B346354623612060A2605A46494600F0E6
:105130007FFFD8F80830A2682068551B58449E1B92
:10514000A5602060C8F808601EB3083757E90296CA
:10515000AB46002EF9D0AE42B4D23546B346E4E7B2
:10516000504601F01BF803460028D4D1216950466F
:1051700000F016FE0C2300224FF0FF30CAF800307A
:10518000A38943F04003A381C8E9012203B0BDE82D
:10519000F08F0020C8F8040003B0BDE8F08F00BF16
:1051A0002DE9F04FABB00C4604918989934609066E
:1051B0000393059003D52369002B00F0B2840023EC
:1051C000CDE90E330DF1680A08930193CDF834A0B0
:1051D0009BF80030002B00F0BF80252B00F0788476
:1051E0005D4603E0252B00F0A98025466B786C1CFA
:1051F000002BF7D1B4EB0B0600F0AE80DDE90E32E8
:1052000001333244072BCAE900B6CDE90E3200F370
:105210009A800AF1080A019A6B7832440192002BB5
:1052200000F09A8000214FF00003084689460F469F
:105230004FF0FF388DF82F30637804F1010B0BF13C
:10524000010BA3F12002582A00F27482DFE812F069
:10525000E10072027202DC007202720272027202D9
:1052600072027202CF00CA007202C500AC00720264
:10527000A70098009800980098009800980098005F
:105280009800980072027202720272027202720236
:10529000720272027202720244027202720272029C
:1052A000720272027202720272027202720267006B
:1052B0007202720272027202720259007202720269
:1052C000E5017202720272027202720272027202CC
:1052D0007202720272026C013F0172027202720269
:1052E0003A013F01720272022D017202310269001D
:1052F000FA0128017202080172025B007202720256
:10530000E90047F01007B906039B40F10682073316
:1053100023F00703F3E8024503930123A0E147F0DC
:10532000100717F0200300F0EE81039B073323F0F2
:105330000703F3E802450393002391E1B4EB0B0666
:105340003FF470AF5AE70DAADDE90410FFF7ACFE99
:1053500048B90DF1680A5EE70F9B23B105980DAAC5
:105360000499FFF7A1FE049B9B8913F0400F019B5A
:1053700018BF4FF0FF33019301982BB0BDE8F08FB9
:105380004FF00009A3F130021BF8013B09EB89093A
:1053900002EB4909A3F13002092AF5D951E747F098
:1053A00080079BF800304AE75C4614F8013B2A2B43
:1053B00000F01484A3F13002092AA3464FF000083C
:1053C0003FF63FAF1BF8013B08EB880802EB4808AB
:1053D000A3F13002092AF5D933E79BF8003047F0F2
:1053E00004072CE79BF8003001212B2027E7039AC4
:1053F0009BF8003052F8049BB9F1000F0392BFF6FE
:105400001EAFC9F10009EAE747F001079BF8003039
:1054100015E79BF8003000287FF411AF0121202010
:105420000DE7002940F0C983C04ABE060892039ADE
:1054300040F1FC80073222F00702F2E802450392B5
:10544000F90740F1878154EA050200F08381302298
:105450008DF8313047F002078DF830200223FFE04D
:105460004FF00003039C8DF82F3054F8046B002E8E
:1054700000F08583B8F1FF3F00F0478342460021EA
:105480003046FFF7F7F8002800F08983831BCDE949
:1054900002349DF82F30009706934FF00008FDE08E
:1054A00047F020079BF80030C9E69BF800306C2BD2
:1054B00003BF9BF8013047F020070BF1010B47F0C9
:1054C0001007BCE647F040079BF80030B7E600291C
:1054D00040F07083BA06039B40F10781073323F045
:1054E00007031946F1E8022314461D460391002ADA
:1054F00073F10003C0F2D1829DF82F30B8F1FF3F65
:10550000069300F0B48227F08003009354EA050369
:1055100040F0AC82B8F1000F40F03F834FF000083C
:105520001AAECDF80880B9E001254FF00001039BC9
:105530008DF82F1053F8042B10AECDE902538DF8DF
:1055400040204FF000080097009BDDE90E1213F099
:1055500002030693009B18BF023513F084030793E0
:1055600004D1A9EB0504002C00F3D6819DF82F404F
:1055700001F1010C0AF1080094B101270DF12F048B
:105580003A44BCF1070FCDE90EC2CAE9004700F367
:10559000FA818F1C0AF1100461468246BC462046FF
:1055A000069B7BB102210CAB0A44BCF1070FCDE98D
:1055B0000EC2CAE9003100F3F681614682460CF161
:1055C000010C0830079B802B00F0F080029BA8EBB9
:1055D0000307002F00F33081029BBCF1070F1A4430
:1055E0000F92CAE90063CDF838C000F36581009BD3
:1055F0005B0704D5A9EB0504002C00F3E481019BB3
:10560000A945ACBF4B445B190193002A40F07B8154
:1056100000230DF1680A0E93DAE5002940F0C782F5
:10562000434ABE060892039A3FF504AF52F8044B72
:10563000FD06039200F13A82780640F13782A4B267
:105640000025FDE6039B47F6300253F8044B002586
:105650000393364B47F0020708930223ADF830203E
:10566000002206928DF82F20B8F1FF3F75D027F069
:105670008002009254EA05026ED1B8F1000F40F0AA
:10568000D981002B7FF44AAF17F00103029300F099
:10569000228230230DF167068DF86730029B434567
:1056A000B8BF43461D46069B002B3FF44DAF013566
:1056B0004AE7002940F08682039ABD0652F8043B6F
:1056C000039200F11B82FC0600F13882780640F15B
:1056D0003582019A1A807BE5002940F0768247F0F6
:1056E0001007BA06039B3FF5F9AE53F8044B03933A
:1056F000FB0600F1CA817E0640F1C78124B2E5179E
:1057000022462B46F3E6039A52F8044B039217F015
:10571000100200F0E8810025A2E753F8044BFA06D6
:10572000039340F1DA810025012399E7A092000854
:105730008C920008002940F02D82002B3FF40CAE23
:1057400001258DF840304FF0000302958DF82F3081
:1057500010AEF6E6022383E7009F012B00F087815D
:10576000022B00F06E811AA900E03146E20842EAFD
:105770004572E80804F0070305461446303354EA3E
:10578000050201F8013C01F1FF36EED1FA0740F1C4
:10579000B580302B00F0B2803023023906F8013C8E
:1057A0001AAB5B1A009702930E4677E7A9EB050741
:1057B000002F7FF70BAF102F40F30C820696504658
:1057C0001023AA46DDE90465CA4C04E0103F102FFF
:1057D00000F1080017DD013110320729CDE90E1262
:1057E000C0E90043F2DD0DAA31462846FFF75CFC14
:1057F00000287FF4B8ADDDE90E12103F102F1AA873
:105800004FF01003E7DC55468246069E013100F159
:1058100008033A4407290F92CAE900470E9100F3A2
:105820009E8103F108009A46029B01F1010CA8EB4E
:105830000307002F7FF7D0AE102F40F3A881AD4CA7
:10584000069650462646AA464FF01008049D059C31
:1058500004E0103F102F00F1080015DD0131103277
:105860000729CDE90E12C0E90068F2DD0DAA29462C
:105870002046FFF719FC00287FF475ADDDE90E1214
:10588000103F102F1AA8E9DC554682463446069E82
:1058900001F1010C00F108033A44BCF1070F0F922B
:1058A000CAE90047CDF838C000F302810CF1010CC1
:1058B00003F108009A468FE60DAADDE90410FFF710
:1058C000F3FB00287FF44FAD1AA80F9A8FE61AAEAB
:1058D00001E004460D460A2200232046294603F033
:1058E000DBF9303206F8012D00230A222046294632
:1058F00003F0D2F9002D08BF0A2CEAD21AAB9B1B89
:1059000000970293CAE60DAADDE90410FFF7CCFB6D
:1059100000283FF47DAE26E5102C40F35181099616
:1059200050461023AA46DDE90465734F04E0103C9D
:10593000102C00F1080017DD013110320729CDE9E4
:105940000E12C0E90073F2DD0DAA31462846FFF7BA
:10595000ABFB00287FF407ADDDE90E12103C102CE4
:105960001AA84FF01003E7DC55468246099E013124
:1059700022440729CDE90E12CAE9007400F3E2803F
:105980000AF1080AF2E50DAADDE90410FFF78CFB25
:1059900000287FF4E8ACDDE90E120DF1680A01F190
:1059A000010C1CA8FCE50DAADDE90410FFF77CFB47
:1059B00000287FF4D8ACDDE90E120DF1680A01F180
:1059C000010C1CA8FEE5102C0E9B40F30181DDE9C3
:1059D00004A81026484F04E0103C102C00F10800E9
:1059E00015DD01331032072BCDE90E32C0E9007608
:1059F000F2DD0DAA51464046FFF756FB00287FF422
:105A0000B2ACDDE90E32103C102C1AA8E9DC0133EF
:105A10002244072BCDE90E32C0E900747FF7EFADC9
:105A2000DDE904100DAAFFF73FFB00287FF49BACD3
:105A30000F9AE4E5012B00F0B080022B009F7FF469
:105A400092AE08981AAE230943EA0573290904F0B7
:105A50000F020D461C46835C06F8013D54EA05031F
:105A6000F1D11AAB9B1B0097029317E6009F002D04
:105A700008BF0A2CBFF42BAF012330348DF86740E8
:105A8000009702930DF1670608E6E51722462B46BC
:105A9000002A73F10003BFF62FAD2D2364428DF869
:105AA0002F30069365EB45050123DDE50025C7E4AE
:105AB0000DAADDE90410FFF7F7FA00287FF453ACD4
:105AC000DDE90E320DF1680A03F1010C1CA883E533
:105AD0005C46FFF7A7BB1AAEE0E57B0648BFA4B261
